******************************************************************************
                  TI ARM Linker PC v18.12.2                    
******************************************************************************
>> Linked Thu Oct 31 14:38:23 2019

OUTPUT FILE NAME:   <Ultrasound.out>
ENTRY POINT SYMBOL: "_c_int00_noargs"  address: 00001655


MEMORY CONFIGURATION

         name            origin    length      used     unused   attr    fill
----------------------  --------  ---------  --------  --------  ----  --------
  MAIN                  00000000   00040000  0000190c  0003e6f4  R  X
  INFO                  00200000   00004000  00000000  00004000  R  X
  SRAM_CODE             01000000   00010000  00000458  0000fba8  RW X
  SRAM_DATA             20000000   00010000  00000458  0000fba8  RW  


SEGMENT ALLOCATION MAP

run origin  load origin   length   init length attrs members
----------  ----------- ---------- ----------- ----- -------
00000000    00000000    00001910   00001910    r-x
  00000000    00000000    000000e4   000000e4    r-- .intvecs
  000000e4    000000e4    00001608   00001608    r-x .text
  000016ec    000016ec    000001e8   000001e8    r-- .const
  000018d8    000018d8    00000038   00000038    r-- .cinit
20000000    20000000    00000258   00000000    rw-
  20000000    20000000    0000022c   00000000    rw- .bss
  2000022c    2000022c    0000002c   00000000    rw- .data
2000fe00    2000fe00    00000200   00000000    rw-
  2000fe00    2000fe00    00000200   00000000    rw- .stack


SECTION ALLOCATION MAP

 output                                  attributes/
section   page    origin      length       input sections
--------  ----  ----------  ----------   ----------------
.intvecs   0    00000000    000000e4     
                  00000000    000000e4     startup_msp432p401r_ccs.obj (.intvecs:retain)

.text      0    000000e4    00001608     
                  000000e4    00000ab8     Nokia5110.obj (.text)
                  00000b9c    0000032c     system_msp432p401r.obj (.text)
                  00000ec8    0000026c     UltrasoundLCDmain.obj (.text)
                  00001134    000001e0     Clock.obj (.text)
                  00001314    00000128     Ultrasound.obj (.text)
                  0000143c    000000d0     TA2InputCapture.obj (.text)
                  0000150c    0000009c     rtsv7M4_T_le_v4SPD16_eabi.lib : memcpy_t2.asm.obj (.text)
                  000015a8    00000068                                   : copy_decompress_lzss.c.obj (.text:decompress:lzss:__TI_decompress_lzss)
                  00001610    00000044                                   : autoinit.c.obj (.text:__TI_auto_init_nobinit_nopinit:__TI_auto_init_nobinit_nopinit)
                  00001654    00000034                                   : boot_cortex_m.c.obj (.text:_c_int00_noargs:_c_int00_noargs)
                  00001688    00000024     CortexM.obj (.text)
                  000016ac    0000001c     rtsv7M4_T_le_v4SPD16_eabi.lib : copy_zero_init.c.obj (.text:decompress:ZI:__TI_zero_init_nomemset:__TI_zero_init_nomemset)
                  000016c8    0000000e                                   : copy_decompress_none.c.obj (.text:decompress:none:__TI_decompress_none)
                  000016d6    0000000e     startup_msp432p401r_ccs.obj (.text)
                  000016e4    00000004     rtsv7M4_T_le_v4SPD16_eabi.lib : pre_init.c.obj (.text:_system_pre_init)
                  000016e8    00000004                                   : exit.c.obj (.text:abort:abort)

.const     0    000016ec    000001e8     
                  000016ec    000001e0     Nokia5110.obj (.const:ASCII)
                  000018cc    00000008     Nokia5110.obj (.const:.string:Masks)

.cinit     0    000018d8    00000038     
                  000018d8    00000012     (.cinit..data.load) [load image, compression = lzss]
                  000018ea    00000002     --HOLE-- [fill = 0]
                  000018ec    0000000c     (__TI_handler_table)
                  000018f8    00000008     (.cinit..bss.load) [load image, compression = zero_init]
                  00001900    00000010     (__TI_cinit_table)

.init_array 
*          0    00000000    00000000     UNINITIALIZED

.binit     0    00000000    00000000     

.bss       0    20000000    0000022c     UNINITIALIZED
                  20000000    000001f8     (.common:Screen)
                  200001f8    00000014     (.common:CmBuff)
                  2000020c    00000014     (.common:InBuff)
                  20000220    00000002     (.common:Average)
                  20000222    00000002     (.common:Current)
                  20000224    00000002     (.common:Maximum)
                  20000226    00000002     (.common:Minimum)
                  20000228    00000002     (.common:Ultrasound_FirstTime)
                  2000022a    00000002     (.common:Ultrasound_SecondTime)

.data      0    2000022c    0000002c     UNINITIALIZED
                  2000022c    00000018     Clock.obj (.data)
                  20000244    0000000c     Ultrasound.obj (.data)
                  20000250    00000004     TA2InputCapture.obj (.data)
                  20000254    00000004     system_msp432p401r.obj (.data)

.stack     0    2000fe00    00000200     UNINITIALIZED
                  2000fe00    00000004     rtsv7M4_T_le_v4SPD16_eabi.lib : boot_cortex_m.c.obj (.stack)
                  2000fe04    000001fc     --HOLE--

MODULE SUMMARY

       Module                        code   ro data   rw data
       ------                        ----   -------   -------
    .\
       Nokia5110.obj                 2744   488       1008   
       system_msp432p401r.obj        812    0         8      
       UltrasoundLCDmain.obj         620    0         96     
       Clock.obj                     480    0         48     
       Ultrasound.obj                296    0         32     
       startup_msp432p401r_ccs.obj   14     228       0      
       TA2InputCapture.obj           208    0         8      
       CortexM.obj                   36     0         0      
    +--+-----------------------------+------+---------+---------+
       Total:                        5210   716       1200   
                                                             
    C:\ti\ccs910\ccs\tools\compiler\ti-cgt-arm_18.12.2.LTS\lib\rtsv7M4_T_le_v4SPD16_eabi.lib
       memcpy_t2.asm.obj             156    0         0      
       copy_decompress_lzss.c.obj    104    0         0      
       autoinit.c.obj                68     0         0      
       boot_cortex_m.c.obj           52     0         0      
       copy_zero_init.c.obj          28     0         0      
       copy_decompress_none.c.obj    14     0         0      
       exit.c.obj                    4      0         0      
       pre_init.c.obj                4      0         0      
    +--+-----------------------------+------+---------+---------+
       Total:                        430    0         0      
                                                             
       Stack:                        0      0         1024   
       Linker Generated:             0      54        0      
    +--+-----------------------------+------+---------+---------+
       Grand Total:                  5640   770       2224   


LINKER GENERATED COPY TABLES

__TI_cinit_table @ 00001900 records: 2, size/record: 8, table size: 16
	.data: load addr=000018d8, load size=00000012 bytes, run addr=2000022c, run size=0000002c bytes, compression=lzss
	.bss: load addr=000018f8, load size=00000008 bytes, run addr=20000000, run size=0000022c bytes, compression=zero_init


LINKER GENERATED HANDLER TABLE

__TI_handler_table @ 000018ec records: 3, size/record: 4, table size: 12
	index: 0, handler: __TI_decompress_lzss
	index: 1, handler: __TI_decompress_none
	index: 2, handler: __TI_zero_init


GLOBAL SYMBOLS: SORTED ALPHABETICALLY BY Name 

address   name                          
-------   ----                          
000016e3  ADC14_IRQHandler              
000016e3  AES256_IRQHandler             
20000220  Average                       
000016e3  BusFault_Handler              
000016e9  C$$EXIT                       
000016e3  COMP_E0_IRQHandler            
000016e3  COMP_E1_IRQHandler            
20000234  CPMwait                       
000016e3  CS_IRQHandler                 
20000250  CaptureTask2                  
2000022c  ClockFrequency                
00001289  Clock_Delay1ms                
0000125f  Clock_Delay1us                
0000124b  Clock_GetFreq                 
00001135  Clock_Init48MHz               
200001f8  CmBuff                        
20000240  Crystalstable                 
20000222  Current                       
000016e3  DMA_ERR_IRQHandler            
000016e3  DMA_INT0_IRQHandler           
000016e3  DMA_INT1_IRQHandler           
000016e3  DMA_INT2_IRQHandler           
000016e3  DMA_INT3_IRQHandler           
000016e3  DebugMon_Handler              
000016e3  Default_Handler               
00001689  DisableInterrupts             
000016e3  EUSCIA0_IRQHandler            
000016e3  EUSCIA1_IRQHandler            
000016e3  EUSCIA2_IRQHandler            
000016e3  EUSCIA3_IRQHandler            
000016e3  EUSCIB0_IRQHandler            
000016e3  EUSCIB1_IRQHandler            
000016e3  EUSCIB2_IRQHandler            
000016e3  EUSCIB3_IRQHandler            
0000168f  EnableInterrupts              
0000169f  EndCritical                   
000016e3  FLCTL_IRQHandler              
000016e3  FPU_IRQHandler                
000016e3  HardFault_Handler             
2000023c  IFlags                        
2000020c  InBuff                        
000018cc  Masks                         
20000224  Maximum                       
000016e3  MemManage_Handler             
20000226  Minimum                       
000016e3  NMI_Handler                   
000008c3  Nokia5110_Clear               
00000b15  Nokia5110_ClearBuffer         
00000b49  Nokia5110_ClrPxl              
00000b3f  Nokia5110_DisplayBuffer       
000008ef  Nokia5110_DrawFullImage       
00000131  Nokia5110_Init                
000001db  Nokia5110_OutChar             
0000044d  Nokia5110_OutSDec             
00000687  Nokia5110_OutSDec1            
0000021b  Nokia5110_OutString           
00000239  Nokia5110_OutUDec             
000007f9  Nokia5110_OutUFix1            
00000931  Nokia5110_PrintBMP            
00000887  Nokia5110_SetCursor           
00000b6f  Nokia5110_SetPxl              
000016e3  PCM_IRQHandler                
000016e3  PORT1_IRQHandler              
000016e3  PORT2_IRQHandler              
000016e3  PORT3_IRQHandler              
000016e3  PORT4_IRQHandler              
000016e3  PORT5_IRQHandler              
000016e3  PORT6_IRQHandler              
000016e3  PSS_IRQHandler                
000016e3  PendSV_Handler                
20000238  Postwait                      
20000230  Prewait                       
000016e3  RTC_C_IRQHandler              
000016d7  Reset_Handler                 
000016e3  SVC_Handler                   
20000000  Screen                        
00001695  StartCritical                 
000016e3  SysTick_Handler               
20000254  SystemCoreClock               
00000b9d  SystemCoreClockUpdate         
00000e11  SystemInit                    
000016e3  T32_INT1_IRQHandler           
000016e3  T32_INT2_IRQHandler           
000016e3  T32_INTC_IRQHandler           
000016e3  TA0_0_IRQHandler              
000016e3  TA0_N_IRQHandler              
000016e3  TA1_0_IRQHandler              
000016e3  TA1_N_IRQHandler              
000016e3  TA2_0_IRQHandler              
000014c5  TA2_N_IRQHandler              
000014c5  TA2_N_IRQHandler              
000016e3  TA3_0_IRQHandler              
000016e3  TA3_N_IRQHandler              
00001449  TimerA2Capture_Init           
2000024c  Ultrasound_Busy               
20000244  Ultrasound_Count              
000013bb  Ultrasound_End                
20000228  Ultrasound_FirstTime          
0000135f  Ultrasound_Init               
2000022a  Ultrasound_SecondTime         
00001391  Ultrasound_Start              
20000248  Ultrasound_Valid              
000016e3  UsageFault_Handler            
4000480c  WDTCTL_SYM                    
000016e3  WDT_A_IRQHandler              
000016a7  WaitForInterrupt              
20010000  __STACK_END                   
00000200  __STACK_SIZE                  
00001900  __TI_CINIT_Base               
00001910  __TI_CINIT_Limit              
000018ec  __TI_Handler_Table_Base       
000018f8  __TI_Handler_Table_Limit      
00001611  __TI_auto_init_nobinit_nopinit
000015a9  __TI_decompress_lzss          
000016c9  __TI_decompress_none          
ffffffff  __TI_pprof_out_hndl           
ffffffff  __TI_prof_data_size           
ffffffff  __TI_prof_data_start          
00000000  __TI_static_base__            
000016ad  __TI_zero_init_nomemset       
0000150d  __aeabi_memcpy                
0000150d  __aeabi_memcpy4               
0000150d  __aeabi_memcpy8               
ffffffff  __binit__                     
ffffffff  __c_args__                    
UNDEFED   __mpu_init                    
2000fe00  __stack                       
00001655  _c_int00_noargs               
UNDEFED   _system_post_cinit            
000016e5  _system_pre_init              
000016e9  abort                         
00000f63  avg                           
ffffffff  binit                         
00001251  delay                         
00000000  interruptVectors              
00000fa5  main                          
00000f17  max                           
0000150d  memcpy                        
00000ec9  min                           
0000143d  ta2dummy                      
00001315  ultrasoundint                 


GLOBAL SYMBOLS: SORTED BY Symbol Address 

address   name                          
-------   ----                          
00000000  __TI_static_base__            
00000000  interruptVectors              
00000131  Nokia5110_Init                
000001db  Nokia5110_OutChar             
00000200  __STACK_SIZE                  
0000021b  Nokia5110_OutString           
00000239  Nokia5110_OutUDec             
0000044d  Nokia5110_OutSDec             
00000687  Nokia5110_OutSDec1            
000007f9  Nokia5110_OutUFix1            
00000887  Nokia5110_SetCursor           
000008c3  Nokia5110_Clear               
000008ef  Nokia5110_DrawFullImage       
00000931  Nokia5110_PrintBMP            
00000b15  Nokia5110_ClearBuffer         
00000b3f  Nokia5110_DisplayBuffer       
00000b49  Nokia5110_ClrPxl              
00000b6f  Nokia5110_SetPxl              
00000b9d  SystemCoreClockUpdate         
00000e11  SystemInit                    
00000ec9  min                           
00000f17  max                           
00000f63  avg                           
00000fa5  main                          
00001135  Clock_Init48MHz               
0000124b  Clock_GetFreq                 
00001251  delay                         
0000125f  Clock_Delay1us                
00001289  Clock_Delay1ms                
00001315  ultrasoundint                 
0000135f  Ultrasound_Init               
00001391  Ultrasound_Start              
000013bb  Ultrasound_End                
0000143d  ta2dummy                      
00001449  TimerA2Capture_Init           
000014c5  TA2_N_IRQHandler              
000014c5  TA2_N_IRQHandler              
0000150d  __aeabi_memcpy                
0000150d  __aeabi_memcpy4               
0000150d  __aeabi_memcpy8               
0000150d  memcpy                        
000015a9  __TI_decompress_lzss          
00001611  __TI_auto_init_nobinit_nopinit
00001655  _c_int00_noargs               
00001689  DisableInterrupts             
0000168f  EnableInterrupts              
00001695  StartCritical                 
0000169f  EndCritical                   
000016a7  WaitForInterrupt              
000016ad  __TI_zero_init_nomemset       
000016c9  __TI_decompress_none          
000016d7  Reset_Handler                 
000016e3  ADC14_IRQHandler              
000016e3  AES256_IRQHandler             
000016e3  BusFault_Handler              
000016e3  COMP_E0_IRQHandler            
000016e3  COMP_E1_IRQHandler            
000016e3  CS_IRQHandler                 
000016e3  DMA_ERR_IRQHandler            
000016e3  DMA_INT0_IRQHandler           
000016e3  DMA_INT1_IRQHandler           
000016e3  DMA_INT2_IRQHandler           
000016e3  DMA_INT3_IRQHandler           
000016e3  DebugMon_Handler              
000016e3  Default_Handler               
000016e3  EUSCIA0_IRQHandler            
000016e3  EUSCIA1_IRQHandler            
000016e3  EUSCIA2_IRQHandler            
000016e3  EUSCIA3_IRQHandler            
000016e3  EUSCIB0_IRQHandler            
000016e3  EUSCIB1_IRQHandler            
000016e3  EUSCIB2_IRQHandler            
000016e3  EUSCIB3_IRQHandler            
000016e3  FLCTL_IRQHandler              
000016e3  FPU_IRQHandler                
000016e3  HardFault_Handler             
000016e3  MemManage_Handler             
000016e3  NMI_Handler                   
000016e3  PCM_IRQHandler                
000016e3  PORT1_IRQHandler              
000016e3  PORT2_IRQHandler              
000016e3  PORT3_IRQHandler              
000016e3  PORT4_IRQHandler              
000016e3  PORT5_IRQHandler              
000016e3  PORT6_IRQHandler              
000016e3  PSS_IRQHandler                
000016e3  PendSV_Handler                
000016e3  RTC_C_IRQHandler              
000016e3  SVC_Handler                   
000016e3  SysTick_Handler               
000016e3  T32_INT1_IRQHandler           
000016e3  T32_INT2_IRQHandler           
000016e3  T32_INTC_IRQHandler           
000016e3  TA0_0_IRQHandler              
000016e3  TA0_N_IRQHandler              
000016e3  TA1_0_IRQHandler              
000016e3  TA1_N_IRQHandler              
000016e3  TA2_0_IRQHandler              
000016e3  TA3_0_IRQHandler              
000016e3  TA3_N_IRQHandler              
000016e3  UsageFault_Handler            
000016e3  WDT_A_IRQHandler              
000016e5  _system_pre_init              
000016e9  C$$EXIT                       
000016e9  abort                         
000018cc  Masks                         
000018ec  __TI_Handler_Table_Base       
000018f8  __TI_Handler_Table_Limit      
00001900  __TI_CINIT_Base               
00001910  __TI_CINIT_Limit              
20000000  Screen                        
200001f8  CmBuff                        
2000020c  InBuff                        
20000220  Average                       
20000222  Current                       
20000224  Maximum                       
20000226  Minimum                       
20000228  Ultrasound_FirstTime          
2000022a  Ultrasound_SecondTime         
2000022c  ClockFrequency                
20000230  Prewait                       
20000234  CPMwait                       
20000238  Postwait                      
2000023c  IFlags                        
20000240  Crystalstable                 
20000244  Ultrasound_Count              
20000248  Ultrasound_Valid              
2000024c  Ultrasound_Busy               
20000250  CaptureTask2                  
20000254  SystemCoreClock               
2000fe00  __stack                       
20010000  __STACK_END                   
4000480c  WDTCTL_SYM                    
ffffffff  __TI_pprof_out_hndl           
ffffffff  __TI_prof_data_size           
ffffffff  __TI_prof_data_start          
ffffffff  __binit__                     
ffffffff  __c_args__                    
ffffffff  binit                         
UNDEFED   __mpu_init                    
UNDEFED   _system_post_cinit            

[141 symbols]
